{
  "contractName": "NftTradingPlatform",
  "abi": [
    {
      "inputs": [],
      "stateMutability": "nonpayable",
      "type": "constructor"
    },
    {
      "anonymous": false,
      "inputs": [
        {
          "indexed": true,
          "internalType": "address",
          "name": "owner",
          "type": "address"
        },
        {
          "indexed": true,
          "internalType": "address",
          "name": "approved",
          "type": "address"
        },
        {
          "indexed": true,
          "internalType": "uint256",
          "name": "tokenId",
          "type": "uint256"
        }
      ],
      "name": "Approval",
      "type": "event"
    },
    {
      "anonymous": false,
      "inputs": [
        {
          "indexed": true,
          "internalType": "address",
          "name": "owner",
          "type": "address"
        },
        {
          "indexed": true,
          "internalType": "address",
          "name": "operator",
          "type": "address"
        },
        {
          "indexed": false,
          "internalType": "bool",
          "name": "approved",
          "type": "bool"
        }
      ],
      "name": "ApprovalForAll",
      "type": "event"
    },
    {
      "anonymous": false,
      "inputs": [
        {
          "indexed": false,
          "internalType": "address",
          "name": "seller",
          "type": "address"
        },
        {
          "indexed": false,
          "internalType": "address",
          "name": "buyer",
          "type": "address"
        },
        {
          "indexed": false,
          "internalType": "uint256",
          "name": "price",
          "type": "uint256"
        }
      ],
      "name": "NftBought",
      "type": "event"
    },
    {
      "anonymous": false,
      "inputs": [
        {
          "indexed": true,
          "internalType": "address",
          "name": "previousOwner",
          "type": "address"
        },
        {
          "indexed": true,
          "internalType": "address",
          "name": "newOwner",
          "type": "address"
        }
      ],
      "name": "OwnershipTransferred",
      "type": "event"
    },
    {
      "anonymous": false,
      "inputs": [
        {
          "indexed": false,
          "internalType": "uint256",
          "name": "tokenId",
          "type": "uint256"
        },
        {
          "indexed": false,
          "internalType": "string",
          "name": "uri",
          "type": "string"
        }
      ],
      "name": "TokenCreated",
      "type": "event"
    },
    {
      "anonymous": false,
      "inputs": [
        {
          "indexed": true,
          "internalType": "address",
          "name": "from",
          "type": "address"
        },
        {
          "indexed": true,
          "internalType": "address",
          "name": "to",
          "type": "address"
        },
        {
          "indexed": true,
          "internalType": "uint256",
          "name": "tokenId",
          "type": "uint256"
        }
      ],
      "name": "Transfer",
      "type": "event"
    },
    {
      "inputs": [
        {
          "internalType": "address",
          "name": "to",
          "type": "address"
        },
        {
          "internalType": "uint256",
          "name": "tokenId",
          "type": "uint256"
        }
      ],
      "name": "approve",
      "outputs": [],
      "stateMutability": "nonpayable",
      "type": "function"
    },
    {
      "inputs": [
        {
          "internalType": "address",
          "name": "owner",
          "type": "address"
        }
      ],
      "name": "balanceOf",
      "outputs": [
        {
          "internalType": "uint256",
          "name": "",
          "type": "uint256"
        }
      ],
      "stateMutability": "view",
      "type": "function",
      "constant": true
    },
    {
      "inputs": [
        {
          "internalType": "uint256",
          "name": "tokenId",
          "type": "uint256"
        }
      ],
      "name": "getApproved",
      "outputs": [
        {
          "internalType": "address",
          "name": "",
          "type": "address"
        }
      ],
      "stateMutability": "view",
      "type": "function",
      "constant": true
    },
    {
      "inputs": [
        {
          "internalType": "address",
          "name": "owner",
          "type": "address"
        },
        {
          "internalType": "address",
          "name": "operator",
          "type": "address"
        }
      ],
      "name": "isApprovedForAll",
      "outputs": [
        {
          "internalType": "bool",
          "name": "",
          "type": "bool"
        }
      ],
      "stateMutability": "view",
      "type": "function",
      "constant": true
    },
    {
      "inputs": [],
      "name": "name",
      "outputs": [
        {
          "internalType": "string",
          "name": "",
          "type": "string"
        }
      ],
      "stateMutability": "view",
      "type": "function",
      "constant": true
    },
    {
      "inputs": [],
      "name": "owner",
      "outputs": [
        {
          "internalType": "address",
          "name": "",
          "type": "address"
        }
      ],
      "stateMutability": "view",
      "type": "function",
      "constant": true
    },
    {
      "inputs": [
        {
          "internalType": "uint256",
          "name": "tokenId",
          "type": "uint256"
        }
      ],
      "name": "ownerOf",
      "outputs": [
        {
          "internalType": "address",
          "name": "",
          "type": "address"
        }
      ],
      "stateMutability": "view",
      "type": "function",
      "constant": true
    },
    {
      "inputs": [],
      "name": "renounceOwnership",
      "outputs": [],
      "stateMutability": "nonpayable",
      "type": "function"
    },
    {
      "inputs": [
        {
          "internalType": "address",
          "name": "from",
          "type": "address"
        },
        {
          "internalType": "address",
          "name": "to",
          "type": "address"
        },
        {
          "internalType": "uint256",
          "name": "tokenId",
          "type": "uint256"
        }
      ],
      "name": "safeTransferFrom",
      "outputs": [],
      "stateMutability": "nonpayable",
      "type": "function"
    },
    {
      "inputs": [
        {
          "internalType": "address",
          "name": "from",
          "type": "address"
        },
        {
          "internalType": "address",
          "name": "to",
          "type": "address"
        },
        {
          "internalType": "uint256",
          "name": "tokenId",
          "type": "uint256"
        },
        {
          "internalType": "bytes",
          "name": "_data",
          "type": "bytes"
        }
      ],
      "name": "safeTransferFrom",
      "outputs": [],
      "stateMutability": "nonpayable",
      "type": "function"
    },
    {
      "inputs": [
        {
          "internalType": "address",
          "name": "operator",
          "type": "address"
        },
        {
          "internalType": "bool",
          "name": "approved",
          "type": "bool"
        }
      ],
      "name": "setApprovalForAll",
      "outputs": [],
      "stateMutability": "nonpayable",
      "type": "function"
    },
    {
      "inputs": [
        {
          "internalType": "bytes4",
          "name": "interfaceId",
          "type": "bytes4"
        }
      ],
      "name": "supportsInterface",
      "outputs": [
        {
          "internalType": "bool",
          "name": "",
          "type": "bool"
        }
      ],
      "stateMutability": "view",
      "type": "function",
      "constant": true
    },
    {
      "inputs": [],
      "name": "symbol",
      "outputs": [
        {
          "internalType": "string",
          "name": "",
          "type": "string"
        }
      ],
      "stateMutability": "view",
      "type": "function",
      "constant": true
    },
    {
      "inputs": [
        {
          "internalType": "uint256",
          "name": "tokenId",
          "type": "uint256"
        }
      ],
      "name": "tokenURI",
      "outputs": [
        {
          "internalType": "string",
          "name": "",
          "type": "string"
        }
      ],
      "stateMutability": "view",
      "type": "function",
      "constant": true
    },
    {
      "inputs": [
        {
          "internalType": "address",
          "name": "from",
          "type": "address"
        },
        {
          "internalType": "address",
          "name": "to",
          "type": "address"
        },
        {
          "internalType": "uint256",
          "name": "tokenId",
          "type": "uint256"
        }
      ],
      "name": "transferFrom",
      "outputs": [],
      "stateMutability": "nonpayable",
      "type": "function"
    },
    {
      "inputs": [
        {
          "internalType": "address",
          "name": "newOwner",
          "type": "address"
        }
      ],
      "name": "transferOwnership",
      "outputs": [],
      "stateMutability": "nonpayable",
      "type": "function"
    },
    {
      "inputs": [
        {
          "internalType": "string",
          "name": "tokenURI",
          "type": "string"
        }
      ],
      "name": "createToken",
      "outputs": [],
      "stateMutability": "nonpayable",
      "type": "function"
    },
    {
      "inputs": [
        {
          "internalType": "uint256",
          "name": "tokenId",
          "type": "uint256"
        },
        {
          "internalType": "uint256",
          "name": "price",
          "type": "uint256"
        }
      ],
      "name": "setTokenPrice",
      "outputs": [],
      "stateMutability": "nonpayable",
      "type": "function"
    },
    {
      "inputs": [
        {
          "internalType": "uint256",
          "name": "tokenId",
          "type": "uint256"
        }
      ],
      "name": "getTokenPrice",
      "outputs": [
        {
          "internalType": "uint256",
          "name": "",
          "type": "uint256"
        }
      ],
      "stateMutability": "view",
      "type": "function",
      "constant": true
    },
    {
      "inputs": [],
      "name": "getItems",
      "outputs": [
        {
          "components": [
            {
              "internalType": "uint256",
              "name": "id",
              "type": "uint256"
            },
            {
              "internalType": "uint256",
              "name": "price",
              "type": "uint256"
            },
            {
              "internalType": "address payable",
              "name": "owner",
              "type": "address"
            }
          ],
          "internalType": "struct NftTradingPlatform.Item[]",
          "name": "",
          "type": "tuple[]"
        }
      ],
      "stateMutability": "view",
      "type": "function",
      "constant": true
    },
    {
      "inputs": [
        {
          "internalType": "uint256",
          "name": "tokenId",
          "type": "uint256"
        }
      ],
      "name": "buy",
      "outputs": [],
      "stateMutability": "payable",
      "type": "function",
      "payable": true
    },
    {
      "inputs": [],
      "name": "withdraw",
      "outputs": [],
      "stateMutability": "nonpayable",
      "type": "function"
    }
  ],
  "bytecode": "0x60806040526005600a553480156200001657600080fd5b506040518060400160405280601481526020017f4e46542054726164696e6720506c6174666f726d0000000000000000000000008152506040518060400160405280600581526020017f4e4654545000000000000000000000000000000000000000000000000000000081525081600090805190602001906200009b929190620001ab565b508060019080519060200190620000b4929190620001ab565b505050620000d7620000cb620000dd60201b60201c565b620000e560201b60201c565b620002c0565b600033905090565b6000600760009054906101000a900473ffffffffffffffffffffffffffffffffffffffff16905081600760006101000a81548173ffffffffffffffffffffffffffffffffffffffff021916908373ffffffffffffffffffffffffffffffffffffffff1602179055508173ffffffffffffffffffffffffffffffffffffffff168173ffffffffffffffffffffffffffffffffffffffff167f8be0079c531659141344cd1fd0a4f28419497f9722a3daafe3b4186f6b6457e060405160405180910390a35050565b828054620001b9906200025b565b90600052602060002090601f016020900481019282620001dd576000855562000229565b82601f10620001f857805160ff191683800117855562000229565b8280016001018555821562000229579182015b82811115620002285782518255916020019190600101906200020b565b5b5090506200023891906200023c565b5090565b5b80821115620002575760008160009055506001016200023d565b5090565b600060028204905060018216806200027457607f821691505b602082108114156200028b576200028a62000291565b5b50919050565b7f4e487b7100000000000000000000000000000000000000000000000000000000600052602260045260246000fd5b613cbb80620002d06000396000f3fe6080604052600436106101355760003560e01c8063715018a6116100ab578063c457fb371161006f578063c457fb37146103fe578063c87b56dd1461043b578063d96a094a14610478578063e985e9c514610494578063eb685c47146104d1578063f2fde38b146104fa57610135565b8063715018a61461033f5780638da5cb5b1461035657806395d89b4114610381578063a22cb465146103ac578063b88d4fde146103d557610135565b80633ccfd60b116100fd5780633ccfd60b14610231578063410d59cc1461024857806342842e0e1461027357806345576f941461029c5780636352211e146102c557806370a082311461030257610135565b806301ffc9a71461013a57806306fdde0314610177578063081812fc146101a2578063095ea7b3146101df57806323b872dd14610208575b600080fd5b34801561014657600080fd5b50610161600480360381019061015c9190612808565b610523565b60405161016e9190612ed3565b60405180910390f35b34801561018357600080fd5b5061018c610605565b6040516101999190612eee565b60405180910390f35b3480156101ae57600080fd5b506101c960048036038101906101c4919061289b565b610697565b6040516101d69190612e13565b60405180910390f35b3480156101eb57600080fd5b50610206600480360381019061020191906127cc565b61071c565b005b34801561021457600080fd5b5061022f600480360381019061022a91906126c6565b610834565b005b34801561023d57600080fd5b50610246610894565b005b34801561025457600080fd5b5061025d610912565b60405161026a9190612eb1565b60405180910390f35b34801561027f57600080fd5b5061029a600480360381019061029591906126c6565b6109db565b005b3480156102a857600080fd5b506102c360048036038101906102be919061285a565b6109fb565b005b3480156102d157600080fd5b506102ec60048036038101906102e7919061289b565b610ba4565b6040516102f99190612e13565b60405180910390f35b34801561030e57600080fd5b5061032960048036038101906103249190612661565b610c56565b60405161033691906131d0565b60405180910390f35b34801561034b57600080fd5b50610354610d0e565b005b34801561036257600080fd5b5061036b610d96565b6040516103789190612e13565b60405180910390f35b34801561038d57600080fd5b50610396610dc0565b6040516103a39190612eee565b60405180910390f35b3480156103b857600080fd5b506103d360048036038101906103ce9190612790565b610e52565b005b3480156103e157600080fd5b506103fc60048036038101906103f79190612715565b610fd3565b005b34801561040a57600080fd5b506104256004803603810190610420919061289b565b611035565b60405161043291906131d0565b60405180910390f35b34801561044757600080fd5b50610462600480360381019061045d919061289b565b6110b0565b60405161046f9190612eee565b60405180910390f35b610492600480360381019061048d919061289b565b611202565b005b3480156104a057600080fd5b506104bb60048036038101906104b6919061268a565b6114d0565b6040516104c89190612ed3565b60405180910390f35b3480156104dd57600080fd5b506104f860048036038101906104f391906128c4565b611564565b005b34801561050657600080fd5b50610521600480360381019061051c9190612661565b61171a565b005b60007f80ac58cd000000000000000000000000000000000000000000000000000000007bffffffffffffffffffffffffffffffffffffffffffffffffffffffff1916827bffffffffffffffffffffffffffffffffffffffffffffffffffffffff191614806105ee57507f5b5e139f000000000000000000000000000000000000000000000000000000007bffffffffffffffffffffffffffffffffffffffffffffffffffffffff1916827bffffffffffffffffffffffffffffffffffffffffffffffffffffffff1916145b806105fe57506105fd82611812565b5b9050919050565b606060008054610614906134e2565b80601f0160208091040260200160405190810160405280929190818152602001828054610640906134e2565b801561068d5780601f106106625761010080835404028352916020019161068d565b820191906000526020600020905b81548152906001019060200180831161067057829003601f168201915b5050505050905090565b60006106a28261187c565b6106e1576040517f08c379a00000000000000000000000000000000000000000000000000000000081526004016106d8906130d0565b60405180910390fd5b6004600083815260200190815260200160002060009054906101000a900473ffffffffffffffffffffffffffffffffffffffff169050919050565b600061072782610ba4565b90508073ffffffffffffffffffffffffffffffffffffffff168373ffffffffffffffffffffffffffffffffffffffff161415610798576040517f08c379a000000000000000000000000000000000000000000000000000000000815260040161078f90613150565b60405180910390fd5b8073ffffffffffffffffffffffffffffffffffffffff166107b76118e8565b73ffffffffffffffffffffffffffffffffffffffff1614806107e657506107e5816107e06118e8565b6114d0565b5b610825576040517f08c379a000000000000000000000000000000000000000000000000000000000815260040161081c90613010565b60405180910390fd5b61082f83836118f0565b505050565b61084561083f6118e8565b826119a9565b610884576040517f08c379a000000000000000000000000000000000000000000000000000000000815260040161087b90613190565b60405180910390fd5b61088f838383611a87565b505050565b61089c6118e8565b73ffffffffffffffffffffffffffffffffffffffff166108ba610d96565b73ffffffffffffffffffffffffffffffffffffffff1614610910576040517f08c379a0000000000000000000000000000000000000000000000000000000008152600401610907906130f0565b60405180910390fd5b565b60606008805480602002602001604051908101604052809291908181526020016000905b828210156109d2578382906000526020600020906003020160405180606001604052908160008201548152602001600182015481526020016002820160009054906101000a900473ffffffffffffffffffffffffffffffffffffffff1673ffffffffffffffffffffffffffffffffffffffff1673ffffffffffffffffffffffffffffffffffffffff168152505081526020019060010190610936565b50505050905090565b6109f683838360405180602001604052806000815250610fd3565b505050565b610a05600b611ce3565b6000612710610a14600b611cf9565b610a1e9190613329565b9050610a2a3382611d07565b610a348183611ed5565b60006040518060600160405280838152602001600a5481526020013373ffffffffffffffffffffffffffffffffffffffff1681525090506008819080600181540180825580915050600190039060005260206000209060030201600090919091909150600082015181600001556020820151816001015560408201518160020160006101000a81548173ffffffffffffffffffffffffffffffffffffffff021916908373ffffffffffffffffffffffffffffffffffffffff16021790555050508060096000848152602001908152602001600020600082015181600001556020820151816001015560408201518160020160006101000a81548173ffffffffffffffffffffffffffffffffffffffff021916908373ffffffffffffffffffffffffffffffffffffffff1602179055509050507f5d3ac5872118b949a1f8db596134a0e1587ecf18f2203bb1e3ea420c3c3f8fa98284604051610b979291906131eb565b60405180910390a1505050565b6000806002600084815260200190815260200160002060009054906101000a900473ffffffffffffffffffffffffffffffffffffffff169050600073ffffffffffffffffffffffffffffffffffffffff168173ffffffffffffffffffffffffffffffffffffffff161415610c4d576040517f08c379a0000000000000000000000000000000000000000000000000000000008152600401610c4490613050565b60405180910390fd5b80915050919050565b60008073ffffffffffffffffffffffffffffffffffffffff168273ffffffffffffffffffffffffffffffffffffffff161415610cc7576040517f08c379a0000000000000000000000000000000000000000000000000000000008152600401610cbe90613030565b60405180910390fd5b600360008373ffffffffffffffffffffffffffffffffffffffff1673ffffffffffffffffffffffffffffffffffffffff168152602001908152602001600020549050919050565b610d166118e8565b73ffffffffffffffffffffffffffffffffffffffff16610d34610d96565b73ffffffffffffffffffffffffffffffffffffffff1614610d8a576040517f08c379a0000000000000000000000000000000000000000000000000000000008152600401610d81906130f0565b60405180910390fd5b610d946000611f49565b565b6000600760009054906101000a900473ffffffffffffffffffffffffffffffffffffffff16905090565b606060018054610dcf906134e2565b80601f0160208091040260200160405190810160405280929190818152602001828054610dfb906134e2565b8015610e485780601f10610e1d57610100808354040283529160200191610e48565b820191906000526020600020905b815481529060010190602001808311610e2b57829003601f168201915b5050505050905090565b610e5a6118e8565b73ffffffffffffffffffffffffffffffffffffffff168273ffffffffffffffffffffffffffffffffffffffff161415610ec8576040517f08c379a0000000000000000000000000000000000000000000000000000000008152600401610ebf90612fb0565b60405180910390fd5b8060056000610ed56118e8565b73ffffffffffffffffffffffffffffffffffffffff1673ffffffffffffffffffffffffffffffffffffffff16815260200190815260200160002060008473ffffffffffffffffffffffffffffffffffffffff1673ffffffffffffffffffffffffffffffffffffffff16815260200190815260200160002060006101000a81548160ff0219169083151502179055508173ffffffffffffffffffffffffffffffffffffffff16610f826118e8565b73ffffffffffffffffffffffffffffffffffffffff167f17307eab39ab6107e8899845ad3d59bd9653f200f220920489ca2b5937696c3183604051610fc79190612ed3565b60405180910390a35050565b610fe4610fde6118e8565b836119a9565b611023576040517f08c379a000000000000000000000000000000000000000000000000000000000815260040161101a90613190565b60405180910390fd5b61102f8484848461200f565b50505050565b6000816000600960008381526020019081526020016000206000015411611091576040517f08c379a000000000000000000000000000000000000000000000000000000000815260040161108890612fd0565b60405180910390fd5b6009600084815260200190815260200160002060010154915050919050565b60606110bb8261187c565b6110fa576040517f08c379a00000000000000000000000000000000000000000000000000000000081526004016110f1906130b0565b60405180910390fd5b600060066000848152602001908152602001600020805461111a906134e2565b80601f0160208091040260200160405190810160405280929190818152602001828054611146906134e2565b80156111935780601f1061116857610100808354040283529160200191611193565b820191906000526020600020905b81548152906001019060200180831161117657829003601f168201915b5050505050905060006111a461206b565b90506000815114156111ba5781925050506111fd565b6000825111156111ef5780826040516020016111d7929190612dda565b604051602081830303815290604052925050506111fd565b6111f884612082565b925050505b919050565b600060096000838152602001908152602001600020905060008160010154905060008260020160009054906101000a900473ffffffffffffffffffffffffffffffffffffffff1690508134101561128e576040517f08c379a000000000000000000000000000000000000000000000000000000000815260040161128590612f50565b60405180910390fd5b60008173ffffffffffffffffffffffffffffffffffffffff16346040516112b490612dfe565b60006040518083038185875af1925050503d80600081146112f1576040519150601f19603f3d011682016040523d82523d6000602084013e6112f6565b606091505b505090508061133a576040517f08c379a0000000000000000000000000000000000000000000000000000000008152600401611331906131b0565b60405180910390fd5b611345823387611a87565b6000339050808560020160006101000a81548173ffffffffffffffffffffffffffffffffffffffff021916908373ffffffffffffffffffffffffffffffffffffffff16021790555060005b60088054905081101561148c5786600882815481106113d8577f4e487b7100000000000000000000000000000000000000000000000000000000600052603260045260246000fd5b906000526020600020906003020160000154141561147b57816008828154811061142b577f4e487b7100000000000000000000000000000000000000000000000000000000600052603260045260246000fd5b906000526020600020906003020160020160006101000a81548173ffffffffffffffffffffffffffffffffffffffff021916908373ffffffffffffffffffffffffffffffffffffffff1602179055505b8061148590613545565b9050611390565b507f608f6ac9327c2bf4d3c77adf447d2c448ba7b0971e0aaa9aa03f7ac29d874a448333346040516114c093929190612e2e565b60405180910390a1505050505050565b6000600560008473ffffffffffffffffffffffffffffffffffffffff1673ffffffffffffffffffffffffffffffffffffffff16815260200190815260200160002060008373ffffffffffffffffffffffffffffffffffffffff1673ffffffffffffffffffffffffffffffffffffffff16815260200190815260200160002060009054906101000a900460ff16905092915050565b8160006009600083815260200190815260200160002060000154116115be576040517f08c379a00000000000000000000000000000000000000000000000000000000081526004016115b590612fd0565b60405180910390fd5b6115c783610ba4565b73ffffffffffffffffffffffffffffffffffffffff163373ffffffffffffffffffffffffffffffffffffffff1614611634576040517f08c379a000000000000000000000000000000000000000000000000000000000815260040161162b90613170565b60405180910390fd5b81600960008581526020019081526020016000206001018190555060005b60088054905081101561171457836008828154811061169a577f4e487b7100000000000000000000000000000000000000000000000000000000600052603260045260246000fd5b90600052602060002090600302016000015414156117035782600882815481106116ed577f4e487b7100000000000000000000000000000000000000000000000000000000600052603260045260246000fd5b9060005260206000209060030201600101819055505b8061170d90613545565b9050611652565b50505050565b6117226118e8565b73ffffffffffffffffffffffffffffffffffffffff16611740610d96565b73ffffffffffffffffffffffffffffffffffffffff1614611796576040517f08c379a000000000000000000000000000000000000000000000000000000000815260040161178d906130f0565b60405180910390fd5b600073ffffffffffffffffffffffffffffffffffffffff168173ffffffffffffffffffffffffffffffffffffffff161415611806576040517f08c379a00000000000000000000000000000000000000000000000000000000081526004016117fd90612f30565b60405180910390fd5b61180f81611f49565b50565b60007f01ffc9a7000000000000000000000000000000000000000000000000000000007bffffffffffffffffffffffffffffffffffffffffffffffffffffffff1916827bffffffffffffffffffffffffffffffffffffffffffffffffffffffff1916149050919050565b60008073ffffffffffffffffffffffffffffffffffffffff166002600084815260200190815260200160002060009054906101000a900473ffffffffffffffffffffffffffffffffffffffff1673ffffffffffffffffffffffffffffffffffffffff1614159050919050565b600033905090565b816004600083815260200190815260200160002060006101000a81548173ffffffffffffffffffffffffffffffffffffffff021916908373ffffffffffffffffffffffffffffffffffffffff160217905550808273ffffffffffffffffffffffffffffffffffffffff1661196383610ba4565b73ffffffffffffffffffffffffffffffffffffffff167f8c5be1e5ebec7d5bd14f71427d1e84f3dd0314c0f7b2291e5b200ac8c7c3b92560405160405180910390a45050565b60006119b48261187c565b6119f3576040517f08c379a00000000000000000000000000000000000000000000000000000000081526004016119ea90612ff0565b60405180910390fd5b60006119fe83610ba4565b90508073ffffffffffffffffffffffffffffffffffffffff168473ffffffffffffffffffffffffffffffffffffffff161480611a6d57508373ffffffffffffffffffffffffffffffffffffffff16611a5584610697565b73ffffffffffffffffffffffffffffffffffffffff16145b80611a7e5750611a7d81856114d0565b5b91505092915050565b8273ffffffffffffffffffffffffffffffffffffffff16611aa782610ba4565b73ffffffffffffffffffffffffffffffffffffffff1614611afd576040517f08c379a0000000000000000000000000000000000000000000000000000000008152600401611af490613110565b60405180910390fd5b600073ffffffffffffffffffffffffffffffffffffffff168273ffffffffffffffffffffffffffffffffffffffff161415611b6d576040517f08c379a0000000000000000000000000000000000000000000000000000000008152600401611b6490612f90565b60405180910390fd5b611b78838383612129565b611b836000826118f0565b6001600360008573ffffffffffffffffffffffffffffffffffffffff1673ffffffffffffffffffffffffffffffffffffffff1681526020019081526020016000206000828254611bd391906133b0565b925050819055506001600360008473ffffffffffffffffffffffffffffffffffffffff1673ffffffffffffffffffffffffffffffffffffffff1681526020019081526020016000206000828254611c2a9190613329565b92505081905550816002600083815260200190815260200160002060006101000a81548173ffffffffffffffffffffffffffffffffffffffff021916908373ffffffffffffffffffffffffffffffffffffffff160217905550808273ffffffffffffffffffffffffffffffffffffffff168473ffffffffffffffffffffffffffffffffffffffff167fddf252ad1be2c89b69c2b068fc378daa952ba7f163c4a11628f55a4df523b3ef60405160405180910390a4505050565b6001816000016000828254019250508190555050565b600081600001549050919050565b600073ffffffffffffffffffffffffffffffffffffffff168273ffffffffffffffffffffffffffffffffffffffff161415611d77576040517f08c379a0000000000000000000000000000000000000000000000000000000008152600401611d6e90613090565b60405180910390fd5b611d808161187c565b15611dc0576040517f08c379a0000000000000000000000000000000000000000000000000000000008152600401611db790612f70565b60405180910390fd5b611dcc60008383612129565b6001600360008473ffffffffffffffffffffffffffffffffffffffff1673ffffffffffffffffffffffffffffffffffffffff1681526020019081526020016000206000828254611e1c9190613329565b92505081905550816002600083815260200190815260200160002060006101000a81548173ffffffffffffffffffffffffffffffffffffffff021916908373ffffffffffffffffffffffffffffffffffffffff160217905550808273ffffffffffffffffffffffffffffffffffffffff16600073ffffffffffffffffffffffffffffffffffffffff167fddf252ad1be2c89b69c2b068fc378daa952ba7f163c4a11628f55a4df523b3ef60405160405180910390a45050565b611ede8261187c565b611f1d576040517f08c379a0000000000000000000000000000000000000000000000000000000008152600401611f1490613070565b60405180910390fd5b80600660008481526020019081526020016000209080519060200190611f44929190612485565b505050565b6000600760009054906101000a900473ffffffffffffffffffffffffffffffffffffffff16905081600760006101000a81548173ffffffffffffffffffffffffffffffffffffffff021916908373ffffffffffffffffffffffffffffffffffffffff1602179055508173ffffffffffffffffffffffffffffffffffffffff168173ffffffffffffffffffffffffffffffffffffffff167f8be0079c531659141344cd1fd0a4f28419497f9722a3daafe3b4186f6b6457e060405160405180910390a35050565b61201a848484611a87565b6120268484848461212e565b612065576040517f08c379a000000000000000000000000000000000000000000000000000000000815260040161205c90612f10565b60405180910390fd5b50505050565b606060405180602001604052806000815250905090565b606061208d8261187c565b6120cc576040517f08c379a00000000000000000000000000000000000000000000000000000000081526004016120c390613130565b60405180910390fd5b60006120d661206b565b905060008151116120f65760405180602001604052806000815250612121565b80612100846122c5565b604051602001612111929190612dda565b6040516020818303038152906040525b915050919050565b505050565b600061214f8473ffffffffffffffffffffffffffffffffffffffff16612472565b156122b8578373ffffffffffffffffffffffffffffffffffffffff1663150b7a026121786118e8565b8786866040518563ffffffff1660e01b815260040161219a9493929190612e65565b602060405180830381600087803b1580156121b457600080fd5b505af19250505080156121e557506040513d601f19601f820116820180604052508101906121e29190612831565b60015b612268573d8060008114612215576040519150601f19603f3d011682016040523d82523d6000602084013e61221a565b606091505b50600081511415612260576040517f08c379a000000000000000000000000000000000000000000000000000000000815260040161225790612f10565b60405180910390fd5b805181602001fd5b63150b7a0260e01b7bffffffffffffffffffffffffffffffffffffffffffffffffffffffff1916817bffffffffffffffffffffffffffffffffffffffffffffffffffffffff1916149150506122bd565b600190505b949350505050565b6060600082141561230d576040518060400160405280600181526020017f3000000000000000000000000000000000000000000000000000000000000000815250905061246d565b600082905060005b6000821461233f57808061232890613545565b915050600a82612338919061337f565b9150612315565b60008167ffffffffffffffff811115612381577f4e487b7100000000000000000000000000000000000000000000000000000000600052604160045260246000fd5b6040519080825280601f01601f1916602001820160405280156123b35781602001600182028036833780820191505090505b5090505b60008514612466576001826123cc91906133b0565b9150600a856123db919061358e565b60306123e79190613329565b60f81b818381518110612423577f4e487b7100000000000000000000000000000000000000000000000000000000600052603260045260246000fd5b60200101907effffffffffffffffffffffffffffffffffffffffffffffffffffffffffffff1916908160001a905350600a8561245f919061337f565b94506123b7565b8093505050505b919050565b600080823b905060008111915050919050565b828054612491906134e2565b90600052602060002090601f0160209004810192826124b357600085556124fa565b82601f106124cc57805160ff19168380011785556124fa565b828001600101855582156124fa579182015b828111156124f95782518255916020019190600101906124de565b5b509050612507919061250b565b5090565b5b8082111561252457600081600090555060010161250c565b5090565b600061253b61253684613240565b61321b565b90508281526020810184848401111561255357600080fd5b61255e8482856134a0565b509392505050565b600061257961257484613271565b61321b565b90508281526020810184848401111561259157600080fd5b61259c8482856134a0565b509392505050565b6000813590506125b381613c29565b92915050565b6000813590506125c881613c40565b92915050565b6000813590506125dd81613c57565b92915050565b6000815190506125f281613c57565b92915050565b600082601f83011261260957600080fd5b8135612619848260208601612528565b91505092915050565b600082601f83011261263357600080fd5b8135612643848260208601612566565b91505092915050565b60008135905061265b81613c6e565b92915050565b60006020828403121561267357600080fd5b6000612681848285016125a4565b91505092915050565b6000806040838503121561269d57600080fd5b60006126ab858286016125a4565b92505060206126bc858286016125a4565b9150509250929050565b6000806000606084860312156126db57600080fd5b60006126e9868287016125a4565b93505060206126fa868287016125a4565b925050604061270b8682870161264c565b9150509250925092565b6000806000806080858703121561272b57600080fd5b6000612739878288016125a4565b945050602061274a878288016125a4565b935050604061275b8782880161264c565b925050606085013567ffffffffffffffff81111561277857600080fd5b612784878288016125f8565b91505092959194509250565b600080604083850312156127a357600080fd5b60006127b1858286016125a4565b92505060206127c2858286016125b9565b9150509250929050565b600080604083850312156127df57600080fd5b60006127ed858286016125a4565b92505060206127fe8582860161264c565b9150509250929050565b60006020828403121561281a57600080fd5b6000612828848285016125ce565b91505092915050565b60006020828403121561284357600080fd5b6000612851848285016125e3565b91505092915050565b60006020828403121561286c57600080fd5b600082013567ffffffffffffffff81111561288657600080fd5b61289284828501612622565b91505092915050565b6000602082840312156128ad57600080fd5b60006128bb8482850161264c565b91505092915050565b600080604083850312156128d757600080fd5b60006128e58582860161264c565b92505060206128f68582860161264c565b9150509250929050565b600061290c8383612d7a565b60608301905092915050565b6129218161346a565b82525050565b612930816133f6565b82525050565b61293f816133e4565b82525050565b6000612950826132b2565b61295a81856132e0565b9350612965836132a2565b8060005b8381101561299657815161297d8882612900565b9750612988836132d3565b925050600181019050612969565b5085935050505092915050565b6129ac81613408565b82525050565b60006129bd826132bd565b6129c781856132f1565b93506129d78185602086016134af565b6129e08161367b565b840191505092915050565b60006129f6826132c8565b612a00818561330d565b9350612a108185602086016134af565b612a198161367b565b840191505092915050565b6000612a2f826132c8565b612a39818561331e565b9350612a498185602086016134af565b80840191505092915050565b6000612a6260328361330d565b9150612a6d8261368c565b604082019050919050565b6000612a8560268361330d565b9150612a90826136db565b604082019050919050565b6000612aa860148361330d565b9150612ab38261372a565b602082019050919050565b6000612acb601c8361330d565b9150612ad682613753565b602082019050919050565b6000612aee60248361330d565b9150612af98261377c565b604082019050919050565b6000612b1160198361330d565b9150612b1c826137cb565b602082019050919050565b6000612b34600f8361330d565b9150612b3f826137f4565b602082019050919050565b6000612b57602c8361330d565b9150612b628261381d565b604082019050919050565b6000612b7a60388361330d565b9150612b858261386c565b604082019050919050565b6000612b9d602a8361330d565b9150612ba8826138bb565b604082019050919050565b6000612bc060298361330d565b9150612bcb8261390a565b604082019050919050565b6000612be3602e8361330d565b9150612bee82613959565b604082019050919050565b6000612c0660208361330d565b9150612c11826139a8565b602082019050919050565b6000612c2960318361330d565b9150612c34826139d1565b604082019050919050565b6000612c4c602c8361330d565b9150612c5782613a20565b604082019050919050565b6000612c6f60208361330d565b9150612c7a82613a6f565b602082019050919050565b6000612c9260298361330d565b9150612c9d82613a98565b604082019050919050565b6000612cb5602f8361330d565b9150612cc082613ae7565b604082019050919050565b6000612cd860218361330d565b9150612ce382613b36565b604082019050919050565b6000612cfb601c8361330d565b9150612d0682613b85565b602082019050919050565b6000612d1e600083613302565b9150612d2982613bae565b600082019050919050565b6000612d4160318361330d565b9150612d4c82613bb1565b604082019050919050565b6000612d64600e8361330d565b9150612d6f82613c00565b602082019050919050565b606082016000820151612d906000850182612dbc565b506020820151612da36020850182612dbc565b506040820151612db66040850182612927565b50505050565b612dc581613460565b82525050565b612dd481613460565b82525050565b6000612de68285612a24565b9150612df28284612a24565b91508190509392505050565b6000612e0982612d11565b9150819050919050565b6000602082019050612e286000830184612936565b92915050565b6000606082019050612e436000830186612918565b612e506020830185612936565b612e5d6040830184612dcb565b949350505050565b6000608082019050612e7a6000830187612936565b612e876020830186612936565b612e946040830185612dcb565b8181036060830152612ea681846129b2565b905095945050505050565b60006020820190508181036000830152612ecb8184612945565b905092915050565b6000602082019050612ee860008301846129a3565b92915050565b60006020820190508181036000830152612f0881846129eb565b905092915050565b60006020820190508181036000830152612f2981612a55565b9050919050565b60006020820190508181036000830152612f4981612a78565b9050919050565b60006020820190508181036000830152612f6981612a9b565b9050919050565b60006020820190508181036000830152612f8981612abe565b9050919050565b60006020820190508181036000830152612fa981612ae1565b9050919050565b60006020820190508181036000830152612fc981612b04565b9050919050565b60006020820190508181036000830152612fe981612b27565b9050919050565b6000602082019050818103600083015261300981612b4a565b9050919050565b6000602082019050818103600083015261302981612b6d565b9050919050565b6000602082019050818103600083015261304981612b90565b9050919050565b6000602082019050818103600083015261306981612bb3565b9050919050565b6000602082019050818103600083015261308981612bd6565b9050919050565b600060208201905081810360008301526130a981612bf9565b9050919050565b600060208201905081810360008301526130c981612c1c565b9050919050565b600060208201905081810360008301526130e981612c3f565b9050919050565b6000602082019050818103600083015261310981612c62565b9050919050565b6000602082019050818103600083015261312981612c85565b9050919050565b6000602082019050818103600083015261314981612ca8565b9050919050565b6000602082019050818103600083015261316981612ccb565b9050919050565b6000602082019050818103600083015261318981612cee565b9050919050565b600060208201905081810360008301526131a981612d34565b9050919050565b600060208201905081810360008301526131c981612d57565b9050919050565b60006020820190506131e56000830184612dcb565b92915050565b60006040820190506132006000830185612dcb565b818103602083015261321281846129eb565b90509392505050565b6000613225613236565b90506132318282613514565b919050565b6000604051905090565b600067ffffffffffffffff82111561325b5761325a61364c565b5b6132648261367b565b9050602081019050919050565b600067ffffffffffffffff82111561328c5761328b61364c565b5b6132958261367b565b9050602081019050919050565b6000819050602082019050919050565b600081519050919050565b600081519050919050565b600081519050919050565b6000602082019050919050565b600082825260208201905092915050565b600082825260208201905092915050565b600081905092915050565b600082825260208201905092915050565b600081905092915050565b600061333482613460565b915061333f83613460565b9250827fffffffffffffffffffffffffffffffffffffffffffffffffffffffffffffffff03821115613374576133736135bf565b5b828201905092915050565b600061338a82613460565b915061339583613460565b9250826133a5576133a46135ee565b5b828204905092915050565b60006133bb82613460565b91506133c683613460565b9250828210156133d9576133d86135bf565b5b828203905092915050565b60006133ef82613440565b9050919050565b600061340182613440565b9050919050565b60008115159050919050565b60007fffffffff0000000000000000000000000000000000000000000000000000000082169050919050565b600073ffffffffffffffffffffffffffffffffffffffff82169050919050565b6000819050919050565b60006134758261347c565b9050919050565b60006134878261348e565b9050919050565b600061349982613440565b9050919050565b82818337600083830152505050565b60005b838110156134cd5780820151818401526020810190506134b2565b838111156134dc576000848401525b50505050565b600060028204905060018216806134fa57607f821691505b6020821081141561350e5761350d61361d565b5b50919050565b61351d8261367b565b810181811067ffffffffffffffff8211171561353c5761353b61364c565b5b80604052505050565b600061355082613460565b91507fffffffffffffffffffffffffffffffffffffffffffffffffffffffffffffffff821415613583576135826135bf565b5b600182019050919050565b600061359982613460565b91506135a483613460565b9250826135b4576135b36135ee565b5b828206905092915050565b7f4e487b7100000000000000000000000000000000000000000000000000000000600052601160045260246000fd5b7f4e487b7100000000000000000000000000000000000000000000000000000000600052601260045260246000fd5b7f4e487b7100000000000000000000000000000000000000000000000000000000600052602260045260246000fd5b7f4e487b7100000000000000000000000000000000000000000000000000000000600052604160045260246000fd5b6000601f19601f8301169050919050565b7f4552433732313a207472616e7366657220746f206e6f6e20455243373231526560008201527f63656976657220696d706c656d656e7465720000000000000000000000000000602082015250565b7f4f776e61626c653a206e6577206f776e657220697320746865207a65726f206160008201527f6464726573730000000000000000000000000000000000000000000000000000602082015250565b7f4e6f7420656e6f75676820666f72207072696365000000000000000000000000600082015250565b7f4552433732313a20746f6b656e20616c7265616479206d696e74656400000000600082015250565b7f4552433732313a207472616e7366657220746f20746865207a65726f2061646460008201527f7265737300000000000000000000000000000000000000000000000000000000602082015250565b7f4552433732313a20617070726f766520746f2063616c6c657200000000000000600082015250565b7f546f6b656e206e6f7420666f756e640000000000000000000000000000000000600082015250565b7f4552433732313a206f70657261746f7220717565727920666f72206e6f6e657860008201527f697374656e7420746f6b656e0000000000000000000000000000000000000000602082015250565b7f4552433732313a20617070726f76652063616c6c6572206973206e6f74206f7760008201527f6e6572206e6f7220617070726f76656420666f7220616c6c0000000000000000602082015250565b7f4552433732313a2062616c616e636520717565727920666f7220746865207a6560008201527f726f206164647265737300000000000000000000000000000000000000000000602082015250565b7f4552433732313a206f776e657220717565727920666f72206e6f6e657869737460008201527f656e7420746f6b656e0000000000000000000000000000000000000000000000602082015250565b7f45524337323155524953746f726167653a2055524920736574206f66206e6f6e60008201527f6578697374656e7420746f6b656e000000000000000000000000000000000000602082015250565b7f4552433732313a206d696e7420746f20746865207a65726f2061646472657373600082015250565b7f45524337323155524953746f726167653a2055524920717565727920666f722060008201527f6e6f6e6578697374656e7420746f6b656e000000000000000000000000000000602082015250565b7f4552433732313a20617070726f76656420717565727920666f72206e6f6e657860008201527f697374656e7420746f6b656e0000000000000000000000000000000000000000602082015250565b7f4f776e61626c653a2063616c6c6572206973206e6f7420746865206f776e6572600082015250565b7f4552433732313a207472616e73666572206f6620746f6b656e2074686174206960008201527f73206e6f74206f776e0000000000000000000000000000000000000000000000602082015250565b7f4552433732314d657461646174613a2055524920717565727920666f72206e6f60008201527f6e6578697374656e7420746f6b656e0000000000000000000000000000000000602082015250565b7f4552433732313a20617070726f76616c20746f2063757272656e74206f776e6560008201527f7200000000000000000000000000000000000000000000000000000000000000602082015250565b7f4f6e6c79206f776e65722063616e207365742074686520707269636500000000600082015250565b50565b7f4552433732313a207472616e736665722063616c6c6572206973206e6f74206f60008201527f776e6572206e6f7220617070726f766564000000000000000000000000000000602082015250565b7f4661696c656420746f2073656e64000000000000000000000000000000000000600082015250565b613c32816133e4565b8114613c3d57600080fd5b50565b613c4981613408565b8114613c5457600080fd5b50565b613c6081613414565b8114613c6b57600080fd5b50565b613c7781613460565b8114613c8257600080fd5b5056fea26469706673582212207bb54ba63eeebc8cf1da5824a66254c1f098bb6327abd03e5b792615a997ecb064736f6c63430008040033",
  "immutableReferences": {},
  "source": "// SPDX-License-Identifier: MIT\npragma solidity 0.8.4;\n\nimport \"@openzeppelin/contracts/token/ERC721/ERC721.sol\";\nimport \"@openzeppelin/contracts/token/ERC721/extensions/ERC721URIStorage.sol\";\nimport \"@openzeppelin/contracts/utils/Counters.sol\";\nimport \"@openzeppelin/contracts/access/Ownable.sol\";\n\n/// @title Contract for trading NFTs\n/// @author Hao Hao\n/// @notice Allows users to create/buy/sell NFTs\n/// @dev Contract inherited from ERC721 token.\ncontract NftTradingPlatform is ERC721URIStorage, Ownable {\n\n    /// @notice Emitted when a token is created\n    /// @param tokenId Token id\n    /// @param uri Token URI\n    event TokenCreated(uint256 tokenId, string uri);\n\n    /// @notice Emitted when a token is bought\n    /// @param seller The seller for the token\n    /// @param buyer The buyer for the token\n    /// @param price Token price\n    event NftBought(address seller, address buyer, uint256 price);\n\n    struct Item {\n        uint id;\n        uint price;\n        address payable owner;\n    }\n\n    /// @dev Array list to capture all items for display listings\n    Item[] items;\n\n    /// @dev Map for storing all listed tokens.\n    mapping (uint => Item) internal itemMap;\n\n    /// @dev The default token price.\n    uint256 defaultTokenPrice = 5;\n\n    using Counters for Counters.Counter;\n    Counters.Counter private _tokenIds;\n\n    /// @notice Check if the token to the given id exists\n    /// @param tokenId Token id\n    modifier tokenExists(uint256 tokenId) {\n        require(itemMap[tokenId].id > 0, 'Token not found');\n        _;\n    }\n\n    constructor() ERC721(\"NFT Trading Platform\", \"NFTTP\") {\n    }\n\n    /// @notice Create a token with the given URI\n    /// @param tokenURI The token URI\n    /// @dev Emit TokenCreated event\n    function createToken(string memory tokenURI) public {\n        _tokenIds.increment();\n        uint256 newItemId = _tokenIds.current() + 10000;\n\n        _mint(msg.sender, newItemId);\n        _setTokenURI(newItemId, tokenURI);\n\n        Item memory newItem = Item({\n            id: newItemId,\n            price: defaultTokenPrice,\n            owner: payable(msg.sender)\n        });\n        items.push(newItem);\n        itemMap[newItemId] = newItem;\n\n        emit TokenCreated(newItemId, tokenURI);\n    }\n\n    /// @notice Update the token listing with given price\n    /// @param tokenId The token id\n    /// @param price The token price\n    /// @dev Check if the token exists first\n    function setTokenPrice(uint256 tokenId, uint256 price) public tokenExists(tokenId) {\n        require(msg.sender == ownerOf(tokenId), 'Only owner can set the price');\n\n        //both array and map needs to be updated\n        itemMap[tokenId].price = price;\n        for (uint i=0; i<items.length; ++i) {\n            if(items[i].id == tokenId) {\n                items[i].price = price;\n            }\n        }\n    }\n\n    /// @notice Get the token price with given id\n    /// @param tokenId The token id\n    /// @dev Check if the token exists first\n    function getTokenPrice(uint256 tokenId) public view tokenExists(tokenId) returns(uint256) {\n        return itemMap[tokenId].price;\n    }\n\n    /// @notice Get all listed tokens\n    function getItems() public view returns (Item[] memory) {\n        return items;\n    }\n\n    /// @notice Allow buying token from other user to a given token id with expected price paid\n    /// @param tokenId Token to which the sender address is purchasing\n    /// @dev Check for if enough payment is made\n    function buy(uint256 tokenId) external payable {\n        // use storage to indicate reference instead of copy by value\n        Item storage curItem = itemMap[tokenId];\n        uint price = curItem.price;\n        address payable curOwner = curItem.owner;\n\n        require(msg.value >= price, 'Not enough for price');\n\n        (bool sent, ) = curOwner.call{ value: msg.value }(\"\");\n        require(sent, \"Failed to send\");\n\n        _transfer(curOwner, msg.sender, tokenId);\n        address payable newOwner = payable(msg.sender);\n        curItem.owner = newOwner;\n        for (uint i=0; i<items.length; ++i) {\n            if(items[i].id == tokenId) {\n                items[i].owner = newOwner;\n            }\n        }\n\n        emit NftBought(curOwner, msg.sender, msg.value);\n    }\n\n    /// @notice Withdraw contract funds\n    /// @dev Only the contract owner can call this\n    function withdraw() public onlyOwner {\n        // TODO: withdraw any funds from contract\n    }\n}",
  "sourcePath": "/Users/hao.hao@coinbase.com/src/blockchain-developer-bootcamp-final-project/contracts/NftTradingPlatform.sol",
  "compiler": {
    "name": "solc",
    "version": "0.8.4+commit.c7e474f2.Emscripten.clang"
  },
  "schemaVersion": "3.4.0",
  "updatedAt": "2021-11-23T07:05:00.038Z",
  "networkType": "ethereum",
  "devdoc": {
    "author": "Hao Hao",
    "details": "Contract inherited from ERC721 token.",
    "events": {
      "NftBought(address,address,uint256)": {
        "params": {
          "buyer": "The buyer for the token",
          "price": "Token price",
          "seller": "The seller for the token"
        }
      },
      "TokenCreated(uint256,string)": {
        "params": {
          "tokenId": "Token id",
          "uri": "Token URI"
        }
      }
    },
    "kind": "dev",
    "methods": {
      "approve(address,uint256)": {
        "details": "See {IERC721-approve}."
      },
      "balanceOf(address)": {
        "details": "See {IERC721-balanceOf}."
      },
      "buy(uint256)": {
        "details": "Check for if enough payment is made",
        "params": {
          "tokenId": "Token to which the sender address is purchasing"
        }
      },
      "createToken(string)": {
        "details": "Emit TokenCreated event",
        "params": {
          "tokenURI": "The token URI"
        }
      },
      "getApproved(uint256)": {
        "details": "See {IERC721-getApproved}."
      },
      "getTokenPrice(uint256)": {
        "details": "Check if the token exists first",
        "params": {
          "tokenId": "The token id"
        }
      },
      "isApprovedForAll(address,address)": {
        "details": "See {IERC721-isApprovedForAll}."
      },
      "name()": {
        "details": "See {IERC721Metadata-name}."
      },
      "owner()": {
        "details": "Returns the address of the current owner."
      },
      "ownerOf(uint256)": {
        "details": "See {IERC721-ownerOf}."
      },
      "renounceOwnership()": {
        "details": "Leaves the contract without owner. It will not be possible to call `onlyOwner` functions anymore. Can only be called by the current owner. NOTE: Renouncing ownership will leave the contract without an owner, thereby removing any functionality that is only available to the owner."
      },
      "safeTransferFrom(address,address,uint256)": {
        "details": "See {IERC721-safeTransferFrom}."
      },
      "safeTransferFrom(address,address,uint256,bytes)": {
        "details": "See {IERC721-safeTransferFrom}."
      },
      "setApprovalForAll(address,bool)": {
        "details": "See {IERC721-setApprovalForAll}."
      },
      "setTokenPrice(uint256,uint256)": {
        "details": "Check if the token exists first",
        "params": {
          "price": "The token price",
          "tokenId": "The token id"
        }
      },
      "supportsInterface(bytes4)": {
        "details": "See {IERC165-supportsInterface}."
      },
      "symbol()": {
        "details": "See {IERC721Metadata-symbol}."
      },
      "tokenURI(uint256)": {
        "details": "See {IERC721Metadata-tokenURI}."
      },
      "transferFrom(address,address,uint256)": {
        "details": "See {IERC721-transferFrom}."
      },
      "transferOwnership(address)": {
        "details": "Transfers ownership of the contract to a new account (`newOwner`). Can only be called by the current owner."
      },
      "withdraw()": {
        "details": "Only the contract owner can call this"
      }
    },
    "stateVariables": {
      "defaultTokenPrice": {
        "details": "The default token price."
      },
      "itemMap": {
        "details": "Map for storing all listed tokens."
      },
      "items": {
        "details": "Array list to capture all items for display listings"
      }
    },
    "title": "Contract for trading NFTs",
    "version": 1
  },
  "userdoc": {
    "events": {
      "NftBought(address,address,uint256)": {
        "notice": "Emitted when a token is bought"
      },
      "TokenCreated(uint256,string)": {
        "notice": "Emitted when a token is created"
      }
    },
    "kind": "user",
    "methods": {
      "buy(uint256)": {
        "notice": "Allow buying token from other user to a given token id with expected price paid"
      },
      "createToken(string)": {
        "notice": "Create a token with the given URI"
      },
      "getItems()": {
        "notice": "Get all listed tokens"
      },
      "getTokenPrice(uint256)": {
        "notice": "Get the token price with given id"
      },
      "setTokenPrice(uint256,uint256)": {
        "notice": "Update the token listing with given price"
      },
      "withdraw()": {
        "notice": "Withdraw contract funds"
      }
    },
    "notice": "Allows users to create/buy/sell NFTs",
    "version": 1
  }
}